{
  "contractName": "NFT",
  "abi": [
    {
      "inputs": [
        {
          "internalType": "string",
          "name": "_name",
          "type": "string"
        },
        {
          "internalType": "string",
          "name": "_symbol",
          "type": "string"
        },
        {
          "internalType": "string",
          "name": "_initBaseURI",
          "type": "string"
        }
      ],
      "stateMutability": "nonpayable",
      "type": "constructor"
    },
    {
      "anonymous": false,
      "inputs": [
        {
          "indexed": true,
          "internalType": "address",
          "name": "owner",
          "type": "address"
        },
        {
          "indexed": true,
          "internalType": "address",
          "name": "approved",
          "type": "address"
        },
        {
          "indexed": true,
          "internalType": "uint256",
          "name": "tokenId",
          "type": "uint256"
        }
      ],
      "name": "Approval",
      "type": "event"
    },
    {
      "anonymous": false,
      "inputs": [
        {
          "indexed": true,
          "internalType": "address",
          "name": "owner",
          "type": "address"
        },
        {
          "indexed": true,
          "internalType": "address",
          "name": "operator",
          "type": "address"
        },
        {
          "indexed": false,
          "internalType": "bool",
          "name": "approved",
          "type": "bool"
        }
      ],
      "name": "ApprovalForAll",
      "type": "event"
    },
    {
      "anonymous": false,
      "inputs": [
        {
          "indexed": true,
          "internalType": "address",
          "name": "previousOwner",
          "type": "address"
        },
        {
          "indexed": true,
          "internalType": "address",
          "name": "newOwner",
          "type": "address"
        }
      ],
      "name": "OwnershipTransferred",
      "type": "event"
    },
    {
      "anonymous": false,
      "inputs": [
        {
          "indexed": true,
          "internalType": "address",
          "name": "from",
          "type": "address"
        },
        {
          "indexed": true,
          "internalType": "address",
          "name": "to",
          "type": "address"
        },
        {
          "indexed": true,
          "internalType": "uint256",
          "name": "tokenId",
          "type": "uint256"
        }
      ],
      "name": "Transfer",
      "type": "event"
    },
    {
      "inputs": [
        {
          "internalType": "address",
          "name": "to",
          "type": "address"
        },
        {
          "internalType": "uint256",
          "name": "tokenId",
          "type": "uint256"
        }
      ],
      "name": "approve",
      "outputs": [],
      "stateMutability": "nonpayable",
      "type": "function"
    },
    {
      "inputs": [
        {
          "internalType": "address",
          "name": "owner",
          "type": "address"
        }
      ],
      "name": "balanceOf",
      "outputs": [
        {
          "internalType": "uint256",
          "name": "",
          "type": "uint256"
        }
      ],
      "stateMutability": "view",
      "type": "function",
      "constant": true
    },
    {
      "inputs": [],
      "name": "baseExtension",
      "outputs": [
        {
          "internalType": "string",
          "name": "",
          "type": "string"
        }
      ],
      "stateMutability": "view",
      "type": "function",
      "constant": true
    },
    {
      "inputs": [],
      "name": "cost",
      "outputs": [
        {
          "internalType": "uint256",
          "name": "",
          "type": "uint256"
        }
      ],
      "stateMutability": "view",
      "type": "function",
      "constant": true
    },
    {
      "inputs": [
        {
          "internalType": "uint256",
          "name": "tokenId",
          "type": "uint256"
        }
      ],
      "name": "getApproved",
      "outputs": [
        {
          "internalType": "address",
          "name": "",
          "type": "address"
        }
      ],
      "stateMutability": "view",
      "type": "function",
      "constant": true
    },
    {
      "inputs": [
        {
          "internalType": "address",
          "name": "owner",
          "type": "address"
        },
        {
          "internalType": "address",
          "name": "operator",
          "type": "address"
        }
      ],
      "name": "isApprovedForAll",
      "outputs": [
        {
          "internalType": "bool",
          "name": "",
          "type": "bool"
        }
      ],
      "stateMutability": "view",
      "type": "function",
      "constant": true
    },
    {
      "inputs": [],
      "name": "maxSupply",
      "outputs": [
        {
          "internalType": "uint256",
          "name": "",
          "type": "uint256"
        }
      ],
      "stateMutability": "view",
      "type": "function",
      "constant": true
    },
    {
      "inputs": [],
      "name": "name",
      "outputs": [
        {
          "internalType": "string",
          "name": "",
          "type": "string"
        }
      ],
      "stateMutability": "view",
      "type": "function",
      "constant": true
    },
    {
      "inputs": [],
      "name": "owner",
      "outputs": [
        {
          "internalType": "address",
          "name": "",
          "type": "address"
        }
      ],
      "stateMutability": "view",
      "type": "function",
      "constant": true
    },
    {
      "inputs": [
        {
          "internalType": "uint256",
          "name": "tokenId",
          "type": "uint256"
        }
      ],
      "name": "ownerOf",
      "outputs": [
        {
          "internalType": "address",
          "name": "",
          "type": "address"
        }
      ],
      "stateMutability": "view",
      "type": "function",
      "constant": true
    },
    {
      "inputs": [],
      "name": "renounceOwnership",
      "outputs": [],
      "stateMutability": "nonpayable",
      "type": "function"
    },
    {
      "inputs": [
        {
          "internalType": "address",
          "name": "from",
          "type": "address"
        },
        {
          "internalType": "address",
          "name": "to",
          "type": "address"
        },
        {
          "internalType": "uint256",
          "name": "tokenId",
          "type": "uint256"
        }
      ],
      "name": "safeTransferFrom",
      "outputs": [],
      "stateMutability": "nonpayable",
      "type": "function"
    },
    {
      "inputs": [
        {
          "internalType": "address",
          "name": "from",
          "type": "address"
        },
        {
          "internalType": "address",
          "name": "to",
          "type": "address"
        },
        {
          "internalType": "uint256",
          "name": "tokenId",
          "type": "uint256"
        },
        {
          "internalType": "bytes",
          "name": "_data",
          "type": "bytes"
        }
      ],
      "name": "safeTransferFrom",
      "outputs": [],
      "stateMutability": "nonpayable",
      "type": "function"
    },
    {
      "inputs": [
        {
          "internalType": "address",
          "name": "operator",
          "type": "address"
        },
        {
          "internalType": "bool",
          "name": "approved",
          "type": "bool"
        }
      ],
      "name": "setApprovalForAll",
      "outputs": [],
      "stateMutability": "nonpayable",
      "type": "function"
    },
    {
      "inputs": [
        {
          "internalType": "bytes4",
          "name": "interfaceId",
          "type": "bytes4"
        }
      ],
      "name": "supportsInterface",
      "outputs": [
        {
          "internalType": "bool",
          "name": "",
          "type": "bool"
        }
      ],
      "stateMutability": "view",
      "type": "function",
      "constant": true
    },
    {
      "inputs": [],
      "name": "symbol",
      "outputs": [
        {
          "internalType": "string",
          "name": "",
          "type": "string"
        }
      ],
      "stateMutability": "view",
      "type": "function",
      "constant": true
    },
    {
      "inputs": [
        {
          "internalType": "uint256",
          "name": "index",
          "type": "uint256"
        }
      ],
      "name": "tokenByIndex",
      "outputs": [
        {
          "internalType": "uint256",
          "name": "",
          "type": "uint256"
        }
      ],
      "stateMutability": "view",
      "type": "function",
      "constant": true
    },
    {
      "inputs": [
        {
          "internalType": "address",
          "name": "owner",
          "type": "address"
        },
        {
          "internalType": "uint256",
          "name": "index",
          "type": "uint256"
        }
      ],
      "name": "tokenOfOwnerByIndex",
      "outputs": [
        {
          "internalType": "uint256",
          "name": "",
          "type": "uint256"
        }
      ],
      "stateMutability": "view",
      "type": "function",
      "constant": true
    },
    {
      "inputs": [],
      "name": "totalSupply",
      "outputs": [
        {
          "internalType": "uint256",
          "name": "",
          "type": "uint256"
        }
      ],
      "stateMutability": "view",
      "type": "function",
      "constant": true
    },
    {
      "inputs": [
        {
          "internalType": "address",
          "name": "from",
          "type": "address"
        },
        {
          "internalType": "address",
          "name": "to",
          "type": "address"
        },
        {
          "internalType": "uint256",
          "name": "tokenId",
          "type": "uint256"
        }
      ],
      "name": "transferFrom",
      "outputs": [],
      "stateMutability": "nonpayable",
      "type": "function"
    },
    {
      "inputs": [
        {
          "internalType": "address",
          "name": "newOwner",
          "type": "address"
        }
      ],
      "name": "transferOwnership",
      "outputs": [],
      "stateMutability": "nonpayable",
      "type": "function"
    },
    {
      "inputs": [],
      "name": "mint",
      "outputs": [],
      "stateMutability": "payable",
      "type": "function",
      "payable": true
    },
    {
      "inputs": [
        {
          "internalType": "address",
          "name": "_owner",
          "type": "address"
        }
      ],
      "name": "walletOfOwner",
      "outputs": [
        {
          "internalType": "uint256[]",
          "name": "",
          "type": "uint256[]"
        }
      ],
      "stateMutability": "view",
      "type": "function",
      "constant": true
    },
    {
      "inputs": [
        {
          "internalType": "uint256",
          "name": "tokenId",
          "type": "uint256"
        }
      ],
      "name": "tokenURI",
      "outputs": [
        {
          "internalType": "string",
          "name": "",
          "type": "string"
        }
      ],
      "stateMutability": "view",
      "type": "function",
      "constant": true
    },
    {
      "inputs": [
        {
          "internalType": "uint256",
          "name": "_newCost",
          "type": "uint256"
        }
      ],
      "name": "setCost",
      "outputs": [],
      "stateMutability": "nonpayable",
      "type": "function"
    },
    {
      "inputs": [
        {
          "internalType": "string",
          "name": "_newBaseURI",
          "type": "string"
        }
      ],
      "name": "setBaseURI",
      "outputs": [],
      "stateMutability": "nonpayable",
      "type": "function"
    },
    {
      "inputs": [],
      "name": "withdraw",
      "outputs": [],
      "stateMutability": "payable",
      "type": "function",
      "payable": true
    }
  ],
  "bytecode": "0x60806040526040518060400160405280600581526020017f2e6a736f6e000000000000000000000000000000000000000000000000000000815250600c908051906020019062000051929190620002a9565b50670de0b6b3a7640000600d556014600e553480156200007057600080fd5b506040516200435f3803806200435f8339818101604052810190620000969190620004f6565b82828160009080519060200190620000b0929190620002a9565b508060019080519060200190620000c9929190620002a9565b505050620000ec620000e06200010660201b60201c565b6200010e60201b60201c565b620000fd81620001d460201b60201c565b50505062000697565b600033905090565b6000600a60009054906101000a900473ffffffffffffffffffffffffffffffffffffffff16905081600a60006101000a81548173ffffffffffffffffffffffffffffffffffffffff021916908373ffffffffffffffffffffffffffffffffffffffff1602179055508173ffffffffffffffffffffffffffffffffffffffff168173ffffffffffffffffffffffffffffffffffffffff167f8be0079c531659141344cd1fd0a4f28419497f9722a3daafe3b4186f6b6457e060405160405180910390a35050565b620001e46200010660201b60201c565b73ffffffffffffffffffffffffffffffffffffffff166200020a6200027f60201b60201c565b73ffffffffffffffffffffffffffffffffffffffff161462000263576040517f08c379a00000000000000000000000000000000000000000000000000000000081526004016200025a9062000610565b60405180910390fd5b80600b90805190602001906200027b929190620002a9565b5050565b6000600a60009054906101000a900473ffffffffffffffffffffffffffffffffffffffff16905090565b828054620002b79062000661565b90600052602060002090601f016020900481019282620002db576000855562000327565b82601f10620002f657805160ff191683800117855562000327565b8280016001018555821562000327579182015b828111156200032657825182559160200191906001019062000309565b5b5090506200033691906200033a565b5090565b5b80821115620003555760008160009055506001016200033b565b5090565b6000604051905090565b600080fd5b600080fd5b600080fd5b600080fd5b6000601f19601f8301169050919050565b7f4e487b7100000000000000000000000000000000000000000000000000000000600052604160045260246000fd5b620003c28262000377565b810181811067ffffffffffffffff82111715620003e457620003e362000388565b5b80604052505050565b6000620003f962000359565b9050620004078282620003b7565b919050565b600067ffffffffffffffff8211156200042a576200042962000388565b5b620004358262000377565b9050602081019050919050565b60005b838110156200046257808201518184015260208101905062000445565b8381111562000472576000848401525b50505050565b60006200048f62000489846200040c565b620003ed565b905082815260208101848484011115620004ae57620004ad62000372565b5b620004bb84828562000442565b509392505050565b600082601f830112620004db57620004da6200036d565b5b8151620004ed84826020860162000478565b91505092915050565b60008060006060848603121562000512576200051162000363565b5b600084015167ffffffffffffffff81111562000533576200053262000368565b5b6200054186828701620004c3565b935050602084015167ffffffffffffffff81111562000565576200056462000368565b5b6200057386828701620004c3565b925050604084015167ffffffffffffffff81111562000597576200059662000368565b5b620005a586828701620004c3565b9150509250925092565b600082825260208201905092915050565b7f4f776e61626c653a2063616c6c6572206973206e6f7420746865206f776e6572600082015250565b6000620005f8602083620005af565b91506200060582620005c0565b602082019050919050565b600060208201905081810360008301526200062b81620005e9565b9050919050565b7f4e487b7100000000000000000000000000000000000000000000000000000000600052602260045260246000fd5b600060028204905060018216806200067a57607f821691505b6020821081141562000691576200069062000632565b5b50919050565b613cb880620006a76000396000f3fe60806040526004361061019c5760003560e01c80634f6ccce7116100ec578063a22cb4651161008a578063c87b56dd11610064578063c87b56dd14610598578063d5abeb01146105d5578063e985e9c514610600578063f2fde38b1461063d5761019c565b8063a22cb4651461051b578063b88d4fde14610544578063c66828621461056d5761019c565b806370a08231116100c657806370a0823114610471578063715018a6146104ae5780638da5cb5b146104c557806395d89b41146104f05761019c565b80634f6ccce7146103ce57806355f804b31461040b5780636352211e146104345761019c565b806318160ddd116101595780633ccfd60b116101335780633ccfd60b1461033557806342842e0e1461033f578063438b63001461036857806344a0d68a146103a55761019c565b806318160ddd146102a457806323b872dd146102cf5780632f745c59146102f85761019c565b806301ffc9a7146101a157806306fdde03146101de578063081812fc14610209578063095ea7b3146102465780631249c58b1461026f57806313faede614610279575b600080fd5b3480156101ad57600080fd5b506101c860048036038101906101c39190612739565b610666565b6040516101d59190612781565b60405180910390f35b3480156101ea57600080fd5b506101f36106e0565b6040516102009190612835565b60405180910390f35b34801561021557600080fd5b50610230600480360381019061022b919061288d565b610772565b60405161023d91906128fb565b60405180910390f35b34801561025257600080fd5b5061026d60048036038101906102689190612942565b6107f7565b005b61027761090f565b005b34801561028557600080fd5b5061028e61098d565b60405161029b9190612991565b60405180910390f35b3480156102b057600080fd5b506102b9610993565b6040516102c69190612991565b60405180910390f35b3480156102db57600080fd5b506102f660048036038101906102f191906129ac565b6109a0565b005b34801561030457600080fd5b5061031f600480360381019061031a9190612942565b610a00565b60405161032c9190612991565b60405180910390f35b61033d610aa5565b005b34801561034b57600080fd5b50610366600480360381019061036191906129ac565b610b9a565b005b34801561037457600080fd5b5061038f600480360381019061038a91906129ff565b610bba565b60405161039c9190612aea565b60405180910390f35b3480156103b157600080fd5b506103cc60048036038101906103c7919061288d565b610c68565b005b3480156103da57600080fd5b506103f560048036038101906103f0919061288d565b610cee565b6040516104029190612991565b60405180910390f35b34801561041757600080fd5b50610432600480360381019061042d9190612c41565b610d5f565b005b34801561044057600080fd5b5061045b6004803603810190610456919061288d565b610df5565b60405161046891906128fb565b60405180910390f35b34801561047d57600080fd5b50610498600480360381019061049391906129ff565b610ea7565b6040516104a59190612991565b60405180910390f35b3480156104ba57600080fd5b506104c3610f5f565b005b3480156104d157600080fd5b506104da610fe7565b6040516104e791906128fb565b60405180910390f35b3480156104fc57600080fd5b50610505611011565b6040516105129190612835565b60405180910390f35b34801561052757600080fd5b50610542600480360381019061053d9190612cb6565b6110a3565b005b34801561055057600080fd5b5061056b60048036038101906105669190612d97565b6110b9565b005b34801561057957600080fd5b5061058261111b565b60405161058f9190612835565b60405180910390f35b3480156105a457600080fd5b506105bf60048036038101906105ba919061288d565b6111a9565b6040516105cc9190612835565b60405180910390f35b3480156105e157600080fd5b506105ea611253565b6040516105f79190612991565b60405180910390f35b34801561060c57600080fd5b5061062760048036038101906106229190612e1a565b611259565b6040516106349190612781565b60405180910390f35b34801561064957600080fd5b50610664600480360381019061065f91906129ff565b6112ed565b005b60007f780e9d63000000000000000000000000000000000000000000000000000000007bffffffffffffffffffffffffffffffffffffffffffffffffffffffff1916827bffffffffffffffffffffffffffffffffffffffffffffffffffffffff191614806106d957506106d8826113e5565b5b9050919050565b6060600080546106ef90612e89565b80601f016020809104026020016040519081016040528092919081815260200182805461071b90612e89565b80156107685780601f1061073d57610100808354040283529160200191610768565b820191906000526020600020905b81548152906001019060200180831161074b57829003601f168201915b5050505050905090565b600061077d826114c7565b6107bc576040517f08c379a00000000000000000000000000000000000000000000000000000000081526004016107b390612f2d565b60405180910390fd5b6004600083815260200190815260200160002060009054906101000a900473ffffffffffffffffffffffffffffffffffffffff169050919050565b600061080282610df5565b90508073ffffffffffffffffffffffffffffffffffffffff168373ffffffffffffffffffffffffffffffffffffffff161415610873576040517f08c379a000000000000000000000000000000000000000000000000000000000815260040161086a90612fbf565b60405180910390fd5b8073ffffffffffffffffffffffffffffffffffffffff16610892611533565b73ffffffffffffffffffffffffffffffffffffffff1614806108c157506108c0816108bb611533565b611259565b5b610900576040517f08c379a00000000000000000000000000000000000000000000000000000000081526004016108f790613051565b60405180910390fd5b61090a838361153b565b505050565b6000610919610993565b9050600e5481111561092a57600080fd5b610932610fe7565b73ffffffffffffffffffffffffffffffffffffffff163373ffffffffffffffffffffffffffffffffffffffff161461097457600d5434101561097357600080fd5b5b61098a3360018361098591906130a0565b6115f4565b50565b600d5481565b6000600880549050905090565b6109b16109ab611533565b82611612565b6109f0576040517f08c379a00000000000000000000000000000000000000000000000000000000081526004016109e790613168565b60405180910390fd5b6109fb8383836116f0565b505050565b6000610a0b83610ea7565b8210610a4c576040517f08c379a0000000000000000000000000000000000000000000000000000000008152600401610a43906131fa565b60405180910390fd5b600660008473ffffffffffffffffffffffffffffffffffffffff1673ffffffffffffffffffffffffffffffffffffffff168152602001908152602001600020600083815260200190815260200160002054905092915050565b610aad611533565b73ffffffffffffffffffffffffffffffffffffffff16610acb610fe7565b73ffffffffffffffffffffffffffffffffffffffff1614610b21576040517f08c379a0000000000000000000000000000000000000000000000000000000008152600401610b1890613266565b60405180910390fd5b60003373ffffffffffffffffffffffffffffffffffffffff1647604051610b47906132b7565b60006040518083038185875af1925050503d8060008114610b84576040519150601f19603f3d011682016040523d82523d6000602084013e610b89565b606091505b5050905080610b9757600080fd5b50565b610bb5838383604051806020016040528060008152506110b9565b505050565b60606000610bc783610ea7565b905060008167ffffffffffffffff811115610be557610be4612b16565b5b604051908082528060200260200182016040528015610c135781602001602082028036833780820191505090505b50905060005b82811015610c5d57610c2b8582610a00565b828281518110610c3e57610c3d6132cc565b5b6020026020010181815250508080610c55906132fb565b915050610c19565b508092505050919050565b610c70611533565b73ffffffffffffffffffffffffffffffffffffffff16610c8e610fe7565b73ffffffffffffffffffffffffffffffffffffffff1614610ce4576040517f08c379a0000000000000000000000000000000000000000000000000000000008152600401610cdb90613266565b60405180910390fd5b80600d8190555050565b6000610cf8610993565b8210610d39576040517f08c379a0000000000000000000000000000000000000000000000000000000008152600401610d30906133b6565b60405180910390fd5b60088281548110610d4d57610d4c6132cc565b5b90600052602060002001549050919050565b610d67611533565b73ffffffffffffffffffffffffffffffffffffffff16610d85610fe7565b73ffffffffffffffffffffffffffffffffffffffff1614610ddb576040517f08c379a0000000000000000000000000000000000000000000000000000000008152600401610dd290613266565b60405180910390fd5b80600b9080519060200190610df192919061262a565b5050565b6000806002600084815260200190815260200160002060009054906101000a900473ffffffffffffffffffffffffffffffffffffffff169050600073ffffffffffffffffffffffffffffffffffffffff168173ffffffffffffffffffffffffffffffffffffffff161415610e9e576040517f08c379a0000000000000000000000000000000000000000000000000000000008152600401610e9590613448565b60405180910390fd5b80915050919050565b60008073ffffffffffffffffffffffffffffffffffffffff168273ffffffffffffffffffffffffffffffffffffffff161415610f18576040517f08c379a0000000000000000000000000000000000000000000000000000000008152600401610f0f906134da565b60405180910390fd5b600360008373ffffffffffffffffffffffffffffffffffffffff1673ffffffffffffffffffffffffffffffffffffffff168152602001908152602001600020549050919050565b610f67611533565b73ffffffffffffffffffffffffffffffffffffffff16610f85610fe7565b73ffffffffffffffffffffffffffffffffffffffff1614610fdb576040517f08c379a0000000000000000000000000000000000000000000000000000000008152600401610fd290613266565b60405180910390fd5b610fe5600061194c565b565b6000600a60009054906101000a900473ffffffffffffffffffffffffffffffffffffffff16905090565b60606001805461102090612e89565b80601f016020809104026020016040519081016040528092919081815260200182805461104c90612e89565b80156110995780601f1061106e57610100808354040283529160200191611099565b820191906000526020600020905b81548152906001019060200180831161107c57829003601f168201915b5050505050905090565b6110b56110ae611533565b8383611a12565b5050565b6110ca6110c4611533565b83611612565b611109576040517f08c379a000000000000000000000000000000000000000000000000000000000815260040161110090613168565b60405180910390fd5b61111584848484611b7f565b50505050565b600c805461112890612e89565b80601f016020809104026020016040519081016040528092919081815260200182805461115490612e89565b80156111a15780601f10611176576101008083540402835291602001916111a1565b820191906000526020600020905b81548152906001019060200180831161118457829003601f168201915b505050505081565b60606111b4826114c7565b6111f3576040517f08c379a00000000000000000000000000000000000000000000000000000000081526004016111ea9061356c565b60405180910390fd5b60006111fd611bdb565b9050600081511161121d576040518060200160405280600081525061124b565b8061122784611c6d565b600c60405160200161123b9392919061365c565b6040516020818303038152906040525b915050919050565b600e5481565b6000600560008473ffffffffffffffffffffffffffffffffffffffff1673ffffffffffffffffffffffffffffffffffffffff16815260200190815260200160002060008373ffffffffffffffffffffffffffffffffffffffff1673ffffffffffffffffffffffffffffffffffffffff16815260200190815260200160002060009054906101000a900460ff16905092915050565b6112f5611533565b73ffffffffffffffffffffffffffffffffffffffff16611313610fe7565b73ffffffffffffffffffffffffffffffffffffffff1614611369576040517f08c379a000000000000000000000000000000000000000000000000000000000815260040161136090613266565b60405180910390fd5b600073ffffffffffffffffffffffffffffffffffffffff168173ffffffffffffffffffffffffffffffffffffffff1614156113d9576040517f08c379a00000000000000000000000000000000000000000000000000000000081526004016113d0906136ff565b60405180910390fd5b6113e28161194c565b50565b60007f80ac58cd000000000000000000000000000000000000000000000000000000007bffffffffffffffffffffffffffffffffffffffffffffffffffffffff1916827bffffffffffffffffffffffffffffffffffffffffffffffffffffffff191614806114b057507f5b5e139f000000000000000000000000000000000000000000000000000000007bffffffffffffffffffffffffffffffffffffffffffffffffffffffff1916827bffffffffffffffffffffffffffffffffffffffffffffffffffffffff1916145b806114c057506114bf82611dce565b5b9050919050565b60008073ffffffffffffffffffffffffffffffffffffffff166002600084815260200190815260200160002060009054906101000a900473ffffffffffffffffffffffffffffffffffffffff1673ffffffffffffffffffffffffffffffffffffffff1614159050919050565b600033905090565b816004600083815260200190815260200160002060006101000a81548173ffffffffffffffffffffffffffffffffffffffff021916908373ffffffffffffffffffffffffffffffffffffffff160217905550808273ffffffffffffffffffffffffffffffffffffffff166115ae83610df5565b73ffffffffffffffffffffffffffffffffffffffff167f8c5be1e5ebec7d5bd14f71427d1e84f3dd0314c0f7b2291e5b200ac8c7c3b92560405160405180910390a45050565b61160e828260405180602001604052806000815250611e38565b5050565b600061161d826114c7565b61165c576040517f08c379a000000000000000000000000000000000000000000000000000000000815260040161165390613791565b60405180910390fd5b600061166783610df5565b90508073ffffffffffffffffffffffffffffffffffffffff168473ffffffffffffffffffffffffffffffffffffffff1614806116d657508373ffffffffffffffffffffffffffffffffffffffff166116be84610772565b73ffffffffffffffffffffffffffffffffffffffff16145b806116e757506116e68185611259565b5b91505092915050565b8273ffffffffffffffffffffffffffffffffffffffff1661171082610df5565b73ffffffffffffffffffffffffffffffffffffffff1614611766576040517f08c379a000000000000000000000000000000000000000000000000000000000815260040161175d90613823565b60405180910390fd5b600073ffffffffffffffffffffffffffffffffffffffff168273ffffffffffffffffffffffffffffffffffffffff1614156117d6576040517f08c379a00000000000000000000000000000000000000000000000000000000081526004016117cd906138b5565b60405180910390fd5b6117e1838383611e93565b6117ec60008261153b565b6001600360008573ffffffffffffffffffffffffffffffffffffffff1673ffffffffffffffffffffffffffffffffffffffff168152602001908152602001600020600082825461183c91906138d5565b925050819055506001600360008473ffffffffffffffffffffffffffffffffffffffff1673ffffffffffffffffffffffffffffffffffffffff168152602001908152602001600020600082825461189391906130a0565b92505081905550816002600083815260200190815260200160002060006101000a81548173ffffffffffffffffffffffffffffffffffffffff021916908373ffffffffffffffffffffffffffffffffffffffff160217905550808273ffffffffffffffffffffffffffffffffffffffff168473ffffffffffffffffffffffffffffffffffffffff167fddf252ad1be2c89b69c2b068fc378daa952ba7f163c4a11628f55a4df523b3ef60405160405180910390a4505050565b6000600a60009054906101000a900473ffffffffffffffffffffffffffffffffffffffff16905081600a60006101000a81548173ffffffffffffffffffffffffffffffffffffffff021916908373ffffffffffffffffffffffffffffffffffffffff1602179055508173ffffffffffffffffffffffffffffffffffffffff168173ffffffffffffffffffffffffffffffffffffffff167f8be0079c531659141344cd1fd0a4f28419497f9722a3daafe3b4186f6b6457e060405160405180910390a35050565b8173ffffffffffffffffffffffffffffffffffffffff168373ffffffffffffffffffffffffffffffffffffffff161415611a81576040517f08c379a0000000000000000000000000000000000000000000000000000000008152600401611a7890613955565b60405180910390fd5b80600560008573ffffffffffffffffffffffffffffffffffffffff1673ffffffffffffffffffffffffffffffffffffffff16815260200190815260200160002060008473ffffffffffffffffffffffffffffffffffffffff1673ffffffffffffffffffffffffffffffffffffffff16815260200190815260200160002060006101000a81548160ff0219169083151502179055508173ffffffffffffffffffffffffffffffffffffffff168373ffffffffffffffffffffffffffffffffffffffff167f17307eab39ab6107e8899845ad3d59bd9653f200f220920489ca2b5937696c3183604051611b729190612781565b60405180910390a3505050565b611b8a8484846116f0565b611b9684848484611fa7565b611bd5576040517f08c379a0000000000000000000000000000000000000000000000000000000008152600401611bcc906139e7565b60405180910390fd5b50505050565b6060600b8054611bea90612e89565b80601f0160208091040260200160405190810160405280929190818152602001828054611c1690612e89565b8015611c635780601f10611c3857610100808354040283529160200191611c63565b820191906000526020600020905b815481529060010190602001808311611c4657829003601f168201915b5050505050905090565b60606000821415611cb5576040518060400160405280600181526020017f30000000000000000000000000000000000000000000000000000000000000008152509050611dc9565b600082905060005b60008214611ce7578080611cd0906132fb565b915050600a82611ce09190613a36565b9150611cbd565b60008167ffffffffffffffff811115611d0357611d02612b16565b5b6040519080825280601f01601f191660200182016040528015611d355781602001600182028036833780820191505090505b5090505b60008514611dc257600182611d4e91906138d5565b9150600a85611d5d9190613a67565b6030611d6991906130a0565b60f81b818381518110611d7f57611d7e6132cc565b5b60200101907effffffffffffffffffffffffffffffffffffffffffffffffffffffffffffff1916908160001a905350600a85611dbb9190613a36565b9450611d39565b8093505050505b919050565b60007f01ffc9a7000000000000000000000000000000000000000000000000000000007bffffffffffffffffffffffffffffffffffffffffffffffffffffffff1916827bffffffffffffffffffffffffffffffffffffffffffffffffffffffff1916149050919050565b611e42838361213e565b611e4f6000848484611fa7565b611e8e576040517f08c379a0000000000000000000000000000000000000000000000000000000008152600401611e85906139e7565b60405180910390fd5b505050565b611e9e83838361230c565b600073ffffffffffffffffffffffffffffffffffffffff168373ffffffffffffffffffffffffffffffffffffffff161415611ee157611edc81612311565b611f20565b8173ffffffffffffffffffffffffffffffffffffffff168373ffffffffffffffffffffffffffffffffffffffff1614611f1f57611f1e838261235a565b5b5b600073ffffffffffffffffffffffffffffffffffffffff168273ffffffffffffffffffffffffffffffffffffffff161415611f6357611f5e816124c7565b611fa2565b8273ffffffffffffffffffffffffffffffffffffffff168273ffffffffffffffffffffffffffffffffffffffff1614611fa157611fa08282612598565b5b5b505050565b6000611fc88473ffffffffffffffffffffffffffffffffffffffff16612617565b15612131578373ffffffffffffffffffffffffffffffffffffffff1663150b7a02611ff1611533565b8786866040518563ffffffff1660e01b81526004016120139493929190613aed565b602060405180830381600087803b15801561202d57600080fd5b505af192505050801561205e57506040513d601f19601f8201168201806040525081019061205b9190613b4e565b60015b6120e1573d806000811461208e576040519150601f19603f3d011682016040523d82523d6000602084013e612093565b606091505b506000815114156120d9576040517f08c379a00000000000000000000000000000000000000000000000000000000081526004016120d0906139e7565b60405180910390fd5b805181602001fd5b63150b7a0260e01b7bffffffffffffffffffffffffffffffffffffffffffffffffffffffff1916817bffffffffffffffffffffffffffffffffffffffffffffffffffffffff191614915050612136565b600190505b949350505050565b600073ffffffffffffffffffffffffffffffffffffffff168273ffffffffffffffffffffffffffffffffffffffff1614156121ae576040517f08c379a00000000000000000000000000000000000000000000000000000000081526004016121a590613bc7565b60405180910390fd5b6121b7816114c7565b156121f7576040517f08c379a00000000000000000000000000000000000000000000000000000000081526004016121ee90613c33565b60405180910390fd5b61220360008383611e93565b6001600360008473ffffffffffffffffffffffffffffffffffffffff1673ffffffffffffffffffffffffffffffffffffffff168152602001908152602001600020600082825461225391906130a0565b92505081905550816002600083815260200190815260200160002060006101000a81548173ffffffffffffffffffffffffffffffffffffffff021916908373ffffffffffffffffffffffffffffffffffffffff160217905550808273ffffffffffffffffffffffffffffffffffffffff16600073ffffffffffffffffffffffffffffffffffffffff167fddf252ad1be2c89b69c2b068fc378daa952ba7f163c4a11628f55a4df523b3ef60405160405180910390a45050565b505050565b6008805490506009600083815260200190815260200160002081905550600881908060018154018082558091505060019003906000526020600020016000909190919091505550565b6000600161236784610ea7565b61237191906138d5565b9050600060076000848152602001908152602001600020549050818114612456576000600660008673ffffffffffffffffffffffffffffffffffffffff1673ffffffffffffffffffffffffffffffffffffffff168152602001908152602001600020600084815260200190815260200160002054905080600660008773ffffffffffffffffffffffffffffffffffffffff1673ffffffffffffffffffffffffffffffffffffffff168152602001908152602001600020600084815260200190815260200160002081905550816007600083815260200190815260200160002081905550505b6007600084815260200190815260200160002060009055600660008573ffffffffffffffffffffffffffffffffffffffff1673ffffffffffffffffffffffffffffffffffffffff16815260200190815260200160002060008381526020019081526020016000206000905550505050565b600060016008805490506124db91906138d5565b905060006009600084815260200190815260200160002054905060006008838154811061250b5761250a6132cc565b5b90600052602060002001549050806008838154811061252d5761252c6132cc565b5b90600052602060002001819055508160096000838152602001908152602001600020819055506009600085815260200190815260200160002060009055600880548061257c5761257b613c53565b5b6001900381819060005260206000200160009055905550505050565b60006125a383610ea7565b905081600660008573ffffffffffffffffffffffffffffffffffffffff1673ffffffffffffffffffffffffffffffffffffffff168152602001908152602001600020600083815260200190815260200160002081905550806007600084815260200190815260200160002081905550505050565b600080823b905060008111915050919050565b82805461263690612e89565b90600052602060002090601f016020900481019282612658576000855561269f565b82601f1061267157805160ff191683800117855561269f565b8280016001018555821561269f579182015b8281111561269e578251825591602001919060010190612683565b5b5090506126ac91906126b0565b5090565b5b808211156126c95760008160009055506001016126b1565b5090565b6000604051905090565b600080fd5b600080fd5b60007fffffffff0000000000000000000000000000000000000000000000000000000082169050919050565b612716816126e1565b811461272157600080fd5b50565b6000813590506127338161270d565b92915050565b60006020828403121561274f5761274e6126d7565b5b600061275d84828501612724565b91505092915050565b60008115159050919050565b61277b81612766565b82525050565b60006020820190506127966000830184612772565b92915050565b600081519050919050565b600082825260208201905092915050565b60005b838110156127d65780820151818401526020810190506127bb565b838111156127e5576000848401525b50505050565b6000601f19601f8301169050919050565b60006128078261279c565b61281181856127a7565b93506128218185602086016127b8565b61282a816127eb565b840191505092915050565b6000602082019050818103600083015261284f81846127fc565b905092915050565b6000819050919050565b61286a81612857565b811461287557600080fd5b50565b60008135905061288781612861565b92915050565b6000602082840312156128a3576128a26126d7565b5b60006128b184828501612878565b91505092915050565b600073ffffffffffffffffffffffffffffffffffffffff82169050919050565b60006128e5826128ba565b9050919050565b6128f5816128da565b82525050565b600060208201905061291060008301846128ec565b92915050565b61291f816128da565b811461292a57600080fd5b50565b60008135905061293c81612916565b92915050565b60008060408385031215612959576129586126d7565b5b60006129678582860161292d565b925050602061297885828601612878565b9150509250929050565b61298b81612857565b82525050565b60006020820190506129a66000830184612982565b92915050565b6000806000606084860312156129c5576129c46126d7565b5b60006129d38682870161292d565b93505060206129e48682870161292d565b92505060406129f586828701612878565b9150509250925092565b600060208284031215612a1557612a146126d7565b5b6000612a238482850161292d565b91505092915050565b600081519050919050565b600082825260208201905092915050565b6000819050602082019050919050565b612a6181612857565b82525050565b6000612a738383612a58565b60208301905092915050565b6000602082019050919050565b6000612a9782612a2c565b612aa18185612a37565b9350612aac83612a48565b8060005b83811015612add578151612ac48882612a67565b9750612acf83612a7f565b925050600181019050612ab0565b5085935050505092915050565b60006020820190508181036000830152612b048184612a8c565b905092915050565b600080fd5b600080fd5b7f4e487b7100000000000000000000000000000000000000000000000000000000600052604160045260246000fd5b612b4e826127eb565b810181811067ffffffffffffffff82111715612b6d57612b6c612b16565b5b80604052505050565b6000612b806126cd565b9050612b8c8282612b45565b919050565b600067ffffffffffffffff821115612bac57612bab612b16565b5b612bb5826127eb565b9050602081019050919050565b82818337600083830152505050565b6000612be4612bdf84612b91565b612b76565b905082815260208101848484011115612c0057612bff612b11565b5b612c0b848285612bc2565b509392505050565b600082601f830112612c2857612c27612b0c565b5b8135612c38848260208601612bd1565b91505092915050565b600060208284031215612c5757612c566126d7565b5b600082013567ffffffffffffffff811115612c7557612c746126dc565b5b612c8184828501612c13565b91505092915050565b612c9381612766565b8114612c9e57600080fd5b50565b600081359050612cb081612c8a565b92915050565b60008060408385031215612ccd57612ccc6126d7565b5b6000612cdb8582860161292d565b9250506020612cec85828601612ca1565b9150509250929050565b600067ffffffffffffffff821115612d1157612d10612b16565b5b612d1a826127eb565b9050602081019050919050565b6000612d3a612d3584612cf6565b612b76565b905082815260208101848484011115612d5657612d55612b11565b5b612d61848285612bc2565b509392505050565b600082601f830112612d7e57612d7d612b0c565b5b8135612d8e848260208601612d27565b91505092915050565b60008060008060808587031215612db157612db06126d7565b5b6000612dbf8782880161292d565b9450506020612dd08782880161292d565b9350506040612de187828801612878565b925050606085013567ffffffffffffffff811115612e0257612e016126dc565b5b612e0e87828801612d69565b91505092959194509250565b60008060408385031215612e3157612e306126d7565b5b6000612e3f8582860161292d565b9250506020612e508582860161292d565b9150509250929050565b7f4e487b7100000000000000000000000000000000000000000000000000000000600052602260045260246000fd5b60006002820490506001821680612ea157607f821691505b60208210811415612eb557612eb4612e5a565b5b50919050565b7f4552433732313a20617070726f76656420717565727920666f72206e6f6e657860008201527f697374656e7420746f6b656e0000000000000000000000000000000000000000602082015250565b6000612f17602c836127a7565b9150612f2282612ebb565b604082019050919050565b60006020820190508181036000830152612f4681612f0a565b9050919050565b7f4552433732313a20617070726f76616c20746f2063757272656e74206f776e6560008201527f7200000000000000000000000000000000000000000000000000000000000000602082015250565b6000612fa96021836127a7565b9150612fb482612f4d565b604082019050919050565b60006020820190508181036000830152612fd881612f9c565b9050919050565b7f4552433732313a20617070726f76652063616c6c6572206973206e6f74206f7760008201527f6e6572206e6f7220617070726f76656420666f7220616c6c0000000000000000602082015250565b600061303b6038836127a7565b915061304682612fdf565b604082019050919050565b6000602082019050818103600083015261306a8161302e565b9050919050565b7f4e487b7100000000000000000000000000000000000000000000000000000000600052601160045260246000fd5b60006130ab82612857565b91506130b683612857565b9250827fffffffffffffffffffffffffffffffffffffffffffffffffffffffffffffffff038211156130eb576130ea613071565b5b828201905092915050565b7f4552433732313a207472616e736665722063616c6c6572206973206e6f74206f60008201527f776e6572206e6f7220617070726f766564000000000000000000000000000000602082015250565b60006131526031836127a7565b915061315d826130f6565b604082019050919050565b6000602082019050818103600083015261318181613145565b9050919050565b7f455243373231456e756d657261626c653a206f776e657220696e646578206f7560008201527f74206f6620626f756e6473000000000000000000000000000000000000000000602082015250565b60006131e4602b836127a7565b91506131ef82613188565b604082019050919050565b60006020820190508181036000830152613213816131d7565b9050919050565b7f4f776e61626c653a2063616c6c6572206973206e6f7420746865206f776e6572600082015250565b60006132506020836127a7565b915061325b8261321a565b602082019050919050565b6000602082019050818103600083015261327f81613243565b9050919050565b600081905092915050565b50565b60006132a1600083613286565b91506132ac82613291565b600082019050919050565b60006132c282613294565b9150819050919050565b7f4e487b7100000000000000000000000000000000000000000000000000000000600052603260045260246000fd5b600061330682612857565b91507fffffffffffffffffffffffffffffffffffffffffffffffffffffffffffffffff82141561333957613338613071565b5b600182019050919050565b7f455243373231456e756d657261626c653a20676c6f62616c20696e646578206f60008201527f7574206f6620626f756e64730000000000000000000000000000000000000000602082015250565b60006133a0602c836127a7565b91506133ab82613344565b604082019050919050565b600060208201905081810360008301526133cf81613393565b9050919050565b7f4552433732313a206f776e657220717565727920666f72206e6f6e657869737460008201527f656e7420746f6b656e0000000000000000000000000000000000000000000000602082015250565b60006134326029836127a7565b915061343d826133d6565b604082019050919050565b6000602082019050818103600083015261346181613425565b9050919050565b7f4552433732313a2062616c616e636520717565727920666f7220746865207a6560008201527f726f206164647265737300000000000000000000000000000000000000000000602082015250565b60006134c4602a836127a7565b91506134cf82613468565b604082019050919050565b600060208201905081810360008301526134f3816134b7565b9050919050565b7f4552433732314d657461646174613a2055524920717565727920666f72206e6f60008201527f6e6578697374656e7420746f6b656e0000000000000000000000000000000000602082015250565b6000613556602f836127a7565b9150613561826134fa565b604082019050919050565b6000602082019050818103600083015261358581613549565b9050919050565b600081905092915050565b60006135a28261279c565b6135ac818561358c565b93506135bc8185602086016127b8565b80840191505092915050565b60008190508160005260206000209050919050565b600081546135ea81612e89565b6135f4818661358c565b9450600182166000811461360f576001811461362057613653565b60ff19831686528186019350613653565b613629856135c8565b60005b8381101561364b5781548189015260018201915060208101905061362c565b838801955050505b50505092915050565b60006136688286613597565b91506136748285613597565b915061368082846135dd565b9150819050949350505050565b7f4f776e61626c653a206e6577206f776e657220697320746865207a65726f206160008201527f6464726573730000000000000000000000000000000000000000000000000000602082015250565b60006136e96026836127a7565b91506136f48261368d565b604082019050919050565b60006020820190508181036000830152613718816136dc565b9050919050565b7f4552433732313a206f70657261746f7220717565727920666f72206e6f6e657860008201527f697374656e7420746f6b656e0000000000000000000000000000000000000000602082015250565b600061377b602c836127a7565b91506137868261371f565b604082019050919050565b600060208201905081810360008301526137aa8161376e565b9050919050565b7f4552433732313a207472616e73666572206f6620746f6b656e2074686174206960008201527f73206e6f74206f776e0000000000000000000000000000000000000000000000602082015250565b600061380d6029836127a7565b9150613818826137b1565b604082019050919050565b6000602082019050818103600083015261383c81613800565b9050919050565b7f4552433732313a207472616e7366657220746f20746865207a65726f2061646460008201527f7265737300000000000000000000000000000000000000000000000000000000602082015250565b600061389f6024836127a7565b91506138aa82613843565b604082019050919050565b600060208201905081810360008301526138ce81613892565b9050919050565b60006138e082612857565b91506138eb83612857565b9250828210156138fe576138fd613071565b5b828203905092915050565b7f4552433732313a20617070726f766520746f2063616c6c657200000000000000600082015250565b600061393f6019836127a7565b915061394a82613909565b602082019050919050565b6000602082019050818103600083015261396e81613932565b9050919050565b7f4552433732313a207472616e7366657220746f206e6f6e20455243373231526560008201527f63656976657220696d706c656d656e7465720000000000000000000000000000602082015250565b60006139d16032836127a7565b91506139dc82613975565b604082019050919050565b60006020820190508181036000830152613a00816139c4565b9050919050565b7f4e487b7100000000000000000000000000000000000000000000000000000000600052601260045260246000fd5b6000613a4182612857565b9150613a4c83612857565b925082613a5c57613a5b613a07565b5b828204905092915050565b6000613a7282612857565b9150613a7d83612857565b925082613a8d57613a8c613a07565b5b828206905092915050565b600081519050919050565b600082825260208201905092915050565b6000613abf82613a98565b613ac98185613aa3565b9350613ad98185602086016127b8565b613ae2816127eb565b840191505092915050565b6000608082019050613b0260008301876128ec565b613b0f60208301866128ec565b613b1c6040830185612982565b8181036060830152613b2e8184613ab4565b905095945050505050565b600081519050613b488161270d565b92915050565b600060208284031215613b6457613b636126d7565b5b6000613b7284828501613b39565b91505092915050565b7f4552433732313a206d696e7420746f20746865207a65726f2061646472657373600082015250565b6000613bb16020836127a7565b9150613bbc82613b7b565b602082019050919050565b60006020820190508181036000830152613be081613ba4565b9050919050565b7f4552433732313a20746f6b656e20616c7265616479206d696e74656400000000600082015250565b6000613c1d601c836127a7565b9150613c2882613be7565b602082019050919050565b60006020820190508181036000830152613c4c81613c10565b9050919050565b7f4e487b7100000000000000000000000000000000000000000000000000000000600052603160045260246000fdfea26469706673582212206e08b91fa4ca4857e8c8ca8eacda877e2dcfb20f3155cc2a85b8dd82d1133c4364736f6c63430008090033",
  "immutableReferences": {},
  "source": "// SPDX-License-Identifier: MIT\n\nimport \"@openzeppelin/contracts/utils/introspection/IERC165.sol\";\nimport \"@openzeppelin/contracts/token/ERC721/IERC721.sol\";\nimport \"@openzeppelin/contracts/token/ERC721/extensions/IERC721Enumerable.sol\";\nimport \"@openzeppelin/contracts/utils/introspection/ERC165.sol\";\nimport \"@openzeppelin/contracts/utils/Strings.sol\";\nimport \"@openzeppelin/contracts/utils/Address.sol\";\nimport \"@openzeppelin/contracts/token/ERC721/extensions/IERC721Metadata.sol\";\nimport \"@openzeppelin/contracts/token/ERC721/IERC721Receiver.sol\";\nimport \"@openzeppelin/contracts/utils/Context.sol\";\nimport \"@openzeppelin/contracts/token/ERC721/ERC721.sol\";\nimport \"@openzeppelin/contracts/token/ERC721/extensions/ERC721Enumerable.sol\";\nimport \"@openzeppelin/contracts/access/Ownable.sol\";\n\npragma solidity >=0.7.0 <0.9.0;\n\ncontract NFT is ERC721Enumerable, Ownable {\n    using Strings for uint256;\n\n    string baseURI;\n    string public baseExtension = \".json\";\n    uint256 public cost = 1 ether;\n    uint256 public maxSupply = 20;\n\n    constructor(\n        string memory _name,\n        string memory _symbol,\n        string memory _initBaseURI\n    ) ERC721(_name, _symbol) {\n        setBaseURI(_initBaseURI);\n    }\n\n    // internal\n    function _baseURI() internal view virtual override returns (string memory) {\n        return baseURI;\n    }\n\n    // public\n    function mint() public payable {\n        uint256 supply = totalSupply();\n        require(supply <= maxSupply);\n\n        if (msg.sender != owner()) {\n            require(msg.value >= cost);\n        }\n\n        _safeMint(msg.sender, supply + 1);\n    }\n\n    function walletOfOwner(address _owner)\n        public\n        view\n        returns (uint256[] memory)\n    {\n        uint256 ownerTokenCount = balanceOf(_owner);\n        uint256[] memory tokenIds = new uint256[](ownerTokenCount);\n        for (uint256 i; i < ownerTokenCount; i++) {\n            tokenIds[i] = tokenOfOwnerByIndex(_owner, i);\n        }\n        return tokenIds;\n    }\n\n    function tokenURI(uint256 tokenId)\n        public\n        view\n        virtual\n        override\n        returns (string memory)\n    {\n        require(\n            _exists(tokenId),\n            \"ERC721Metadata: URI query for nonexistent token\"\n        );\n\n        string memory currentBaseURI = _baseURI();\n        return\n            bytes(currentBaseURI).length > 0\n                ? string(\n                    abi.encodePacked(\n                        currentBaseURI,\n                        tokenId.toString(),\n                        baseExtension\n                    )\n                )\n                : \"\";\n    }\n\n    // Only owner\n    function setCost(uint256 _newCost) public onlyOwner {\n        cost = _newCost;\n    }\n\n    function setBaseURI(string memory _newBaseURI) public onlyOwner {\n        baseURI = _newBaseURI;\n    }\n\n    function withdraw() public payable onlyOwner {\n        (bool success, ) = payable(msg.sender).call{\n            value: address(this).balance\n        }(\"\");\n        require(success);\n    }\n}\n",
  "sourcePath": "/Users/udaykiran/Desktop/NFT_BOT/nft_batch_minting/contracts/NFT.sol",
  "compiler": {
    "name": "solc",
    "version": "0.8.9+commit.e5eed63a.Emscripten.clang"
  },
  "schemaVersion": "3.4.11",
  "updatedAt": "2023-01-17T05:40:04.171Z",
  "networkType": "ethereum",
  "devdoc": {
    "kind": "dev",
    "methods": {
      "approve(address,uint256)": {
        "details": "See {IERC721-approve}."
      },
      "balanceOf(address)": {
        "details": "See {IERC721-balanceOf}."
      },
      "getApproved(uint256)": {
        "details": "See {IERC721-getApproved}."
      },
      "isApprovedForAll(address,address)": {
        "details": "See {IERC721-isApprovedForAll}."
      },
      "name()": {
        "details": "See {IERC721Metadata-name}."
      },
      "owner()": {
        "details": "Returns the address of the current owner."
      },
      "ownerOf(uint256)": {
        "details": "See {IERC721-ownerOf}."
      },
      "renounceOwnership()": {
        "details": "Leaves the contract without owner. It will not be possible to call `onlyOwner` functions anymore. Can only be called by the current owner. NOTE: Renouncing ownership will leave the contract without an owner, thereby removing any functionality that is only available to the owner."
      },
      "safeTransferFrom(address,address,uint256)": {
        "details": "See {IERC721-safeTransferFrom}."
      },
      "safeTransferFrom(address,address,uint256,bytes)": {
        "details": "See {IERC721-safeTransferFrom}."
      },
      "setApprovalForAll(address,bool)": {
        "details": "See {IERC721-setApprovalForAll}."
      },
      "supportsInterface(bytes4)": {
        "details": "See {IERC165-supportsInterface}."
      },
      "symbol()": {
        "details": "See {IERC721Metadata-symbol}."
      },
      "tokenByIndex(uint256)": {
        "details": "See {IERC721Enumerable-tokenByIndex}."
      },
      "tokenOfOwnerByIndex(address,uint256)": {
        "details": "See {IERC721Enumerable-tokenOfOwnerByIndex}."
      },
      "tokenURI(uint256)": {
        "details": "See {IERC721Metadata-tokenURI}."
      },
      "totalSupply()": {
        "details": "See {IERC721Enumerable-totalSupply}."
      },
      "transferFrom(address,address,uint256)": {
        "details": "See {IERC721-transferFrom}."
      },
      "transferOwnership(address)": {
        "details": "Transfers ownership of the contract to a new account (`newOwner`). Can only be called by the current owner."
      }
    },
    "version": 1
  },
  "userdoc": {
    "kind": "user",
    "methods": {},
    "version": 1
  }
}